:020000040800F2
:1000000010040020FD1E0008111E0008131E000829
:10001000151E0008171E0008191E00080000000029
:100020000000000000000000000000001B1E00088F
:100030001D1E0008000000001F1E0008211E0008F1
:10004000311F0008351F0008391F00083D1F000838
:10005000411F0008451F0008491F00084D1F0008E8
:10006000511F0008551F0008591F00085D1F000898
:10007000611F0008651F0008691F00086D1F000848
:10008000711F0008751F0008791F00087D1F0008F8
:10009000811F0008851F0008891F00088D1F0008A8
:1000A000911F0008951F0008991F00089D1F000858
:1000B000A11F0008A51F0008A91F0008AD1F000808
:1000C000B11F0008B51F0008B91F0008BD1F0008B8
:1000D000C11F0008C51F0008C91F0008251E000811
:1000E000CD1F0008D11F0008D51F0008D91F000828
:1000F000DD1F0008E11F0008E51F0008E91F0008D8
:10010000ED1F0008F11F0008F51F0008F91F000887
:10011000FD1F000801200008052000080920000834
:100120000D200008112000081520000819200008E3
:100130001D20000821200008252000082920000893
:100140002D20000831200008352000083920000843
:100150003D20000841200008452000082B1E000813
:10016000492000084D2000085120000855200008B3
:10017000592000085D2000086120000800000000F0
:1001800065200008692000086D2000087120000823
:1001900075200008792000087D20000881200008D3
:1001A00085200008892000088D20000838B505004A
:1001B00001D1012032BD05F13804607818B92070F2
:1001C000284600F029FB00F017F800F00DF821F0A8
:1001D0002A01FFE74161286800F019F860602020DB
:1001E0006070A070002032BD2868016921F4904140
:1001F0000161286841697047242060702868C168DF
:1002000021F40051C160284600F0C2B92068C168DD
:1002100041F40051C160002070472DE9F8430446C5
:1002200004F138070D46787820281646984641D1C3
:100230000DB1300001D101203DE03878012839D0DE
:1002400001203870002078602120787000F0A6FB33
:10025000A6848146E68403E0216815F8010B486016
:10026000E08CC0B1E08C401EE08400F026F80DD197
:1002700000F02AF8B8B928882168C0F3080048605F
:100280002069002814BF6D1CAD1CE9E700F01CF8C4
:100290000028E1D007E0CDF800804B460022402145
:1002A00000F014F808B1032005E020207870002049
:1002B000387000E00220BDE8F2834B46A068CDF81C
:1002C0000080B0F5805F7047002280212046DBE08F
:1002D00010B500F138039C78202C1CD109B1140012
:1002E00001D1012010BD1C78012C14D001241C70F8
:1002F00081628285C2850021596022219970002186
:10030000197001684A6942F001024A610068C168D7
:1003100041F4907101E0022010BDC160002010BDC9
:10032000C1602068416949084900416170474169DD
:1003300021F040014161606B704738B50446236885
:100340001868D9685A6910F00F0507D182065DD583
:100350008A065BD52046BDE83240D5E0D50702D4F9
:1003600011F4907F52D0C30705D5CB0503D5E36BBD
:1003700043F00103E363430705D5D30703D5E36BDC
:1003800043F00203E363830705D5D30703D5E36B8B
:1003900043F00403E363030705D5D20703D5E26BFB
:1003A00042F00802E263E26B002A6CD0800604D5BA
:1003B000880644BF204600F0A7F820684069E16B3A
:1003C000090701D440061BD5204600F088F82068B4
:1003D000416949060FD5FFF7AAFF60B10FF21D1161
:1003E0000165606B00F0E0FA00284CD0606B016D95
:1003F000BDE8344008472046BDE8324000F0E6BA88
:10040000204600F0E3FA0020E06331BD02062AD561
:100410000A0628D594F83900212834D1A068B0F50F
:10042000805F206A0BD10088C0F308005860206903
:100430000028206A0CBF801C401C206203E0411C85
:10044000216200785860E08C401EE08480B2D0B910
:100450002068C16821F08001C1602068C16841F056
:100460004001C16031BD40060DD548060BD5D868A6
:1004700020F04000D860202084F839002046BDE8F4
:10048000324000F0A4BA31BD2DE9F041069E044689
:100490000D4690461F46206800682840A8420CBFC1
:1004A00001200020404517D116F1010FF3D026B1ED
:1004B00000F074FAC01B8642EDD22068C16821F4B6
:1004C000D071FFF72DFF04F13800202141708170B9
:1004D00000210170032000E00020BDE8F0810168E8
:1004E000CA6822F49072CA6001684A6952085200D0
:1004F0004A61202180F83A1070470000806B00218B
:10050000C185C18400F062BA80B590F83A10222902
:100510003CD18168B1F5805F12D10269816A002AFD
:100520000268526805D1C2F308020A80816A891CF8
:1005300004E002F0FF020A80816A491C81620FE038
:1005400001690029816A04D14A1C826202685268EA
:1005500005E04A1C82620268526802F07F020A705B
:10056000C18D491EC18589B271B90168CA6822F47A
:100570009072CA6001684A69520852004A6120219B
:1005800080F83A1000F068FB002002BD022002BD96
:100590002DE9F0470446642520680169E26821F4EA
:1005A0004051114301611926C168484A1140A268AF
:1005B00011432269114362691143E2691143C16029
:1005C0004169A26921F4407111434161E3694049E5
:1005D000404AB3F5004F3AD1904218BF88420ED13D
:1005E00000F03EFC074600F03BFC804600F038FC83
:1005F000814600F035FC824600F032FC0DE000F050
:1006000027FC074600F024FC804600F021FC8146D0
:1006100000F01EFC824600F01BFC06FB08F361683C
:10062000490000F067F8DB003233B3FBF5F3B2FBAF
:10063000F1F25B00B2FBF5F203F4F87300F04CF852
:10064000C0003230B0FBF5F000F0070038E0904217
:1006500018BF88420ED100F003FC074600F000FCF2
:10066000804600F0FDFB814600F0FAFB824600F078
:10067000F7FB0DE000F0ECFB074600F0E9FB8046DD
:1006800000F0E6FB814600F0E3FB824600F0E0FB71
:1006900006FB08F36168890000F02CF81B01323377
:1006A000B2FBF1F2B3FBF5F3B2FBF5F203F0F003AA
:1006B00000F012F800013230B0FBF5F000F00F004E
:1006C000216880188860BDE8F0870000F369FFFFAB
:1006D000001401400010014003EB0212704306FBBE
:1006E0000AF3B0FBF1F0B3FBF1F3B0FBF5F005FB5F
:1006F00010307047B3FBF1F306FB07F206FB09F776
:10070000B7FBF1F7B7FBF5F705FB173370470000B0
:1007100081B0002000909748416841F480414160D9
:10072000416801F480410091009900210091016825
:1007300041F080510160006800F080500090009806
:1007400001B0704710B586B000F0D0F820688A4933
:10075000884254D1002000908848016841F000711F
:100760000160016801F0007100F0B1F841F08061B2
:100770000160016801F0806100F0A9F841F00061BA
:100780000160016801F0006100F0A7F8016801F064
:10079000040100F09CF841F001010160016801F0E2
:1007A000010100F094F841F002010160016801F0DC
:1007B000020100F08CF841F04001016001A90068DD
:1007C00000F04000009000983220019000F01BF8EB
:1007D0006B4800F087FB862000F013F8694800F0B2
:1007E00081FB4FF4005000F00CF8674800F07AFBF2
:1007F0004FF4205000F005F8644800F073FB06B099
:1008000010BD019001A90220029000200390032056
:1008100004900B200590704710B586B000F066F884
:1008200021685B4A5548914223D10021009101691A
:1008300041F480210161016901F4802100F047F851
:1008400041F00801016001A9006800F00800009073
:1008500000984FF4407000F032F8072005904D48A2
:1008600000F040FB00220021272000F04FFC272051
:1008700021E0494A914220D100210091416941F093
:1008800020014161416901F0200100F026F801A931
:10089000006800F0040000900098C02000F00FF8FD
:1008A00008200590364800F01DFB0022002147205B
:1008B00000F02CFC472000F046FC06B010BD019073
:1008C00002200290012003900320049070470091C1
:1008D0000099002100910168704700910099002162
:1008E0000091016841F0040101607047044601A8CD
:1008F000142100F053BC30B587B0FFF7F7FF206834
:10090000B0F1A04F34D10020009001A91B4C1D4D27
:10091000206840F001002060206800F00100009095
:1009200000984FF4E85001900220029000200390BC
:10093000032004900A200590284600F0D3FA4FF4D3
:100940000070019001A9002002900390284600F059
:10095000C9FA606840F08000606000200090606923
:1009600040F480406061606900F48040009000982D
:1009700007B030BD403802400080024030380240AD
:10098000000802400000024000040240001802403B
:1009900000480040000C024000140140014840683B
:1009A000704700BF0000002090F83510022903D0E6
:1009B0008021416501207047052180F835100068CD
:1009C000016849084900016000207047704770477E
:1009D0007CB500F0E7FB00F06DF800F0B7F8C04C14
:1009E000C048C14D20608021012060608DF8011059
:1009F000002020828DF800008DF80300ADF804007F
:100A0000A061E061E1214FF4000020628DF8021046
:100A1000C4F814D0204600F0DFFBB44868604FF4FF
:100A2000E1360020E86028616861AE600C20A861B2
:100A30000020E8612862281DFFF7B8FB4FF0A040B6
:100A4000A0640420E064022060650020A065E065E9
:100A500002202066012060660020A066E06601207A
:100A600060670020A06704F1480000F097FDA048EF
:100A70006864AE640020E864286568650C20A86599
:100A80000020E865286605F14400FFF78FFB01228E
:100A900005F1840105F14400FFF71AFC0122294603
:100AA000281DFFF715FC642303228CA1281DFFF7E6
:100AB000B4FBFEE700B593B00FF2582106A891EC05
:100AC0000C0B80EC0C0B01A8142100F067FB00203C
:100AD00000908848016841F080510160006800F092
:100AE000805000900098002000908348016841F4F5
:100AF00040410160006800F44040009000980120EF
:100B000006904FF4A020079002200C904FF4800034
:100B10000D9004200E90A8200F9002201090072026
:100B2000119006A800F092FD0F20019005210220EF
:100B30000290002003904FF4A05004904FF4805096
:100B4000059001A800F0FEF813B000BD70B586B0A6
:100B500001A8142100F022FB002000900022674829
:100B6000674C0168674D684E41F0040101600168FF
:100B700001F0040100F062F841F0800101600168B9
:100B800001F0800100F05AF841F0010101600168B4
:100B900001F0010100F052F841F00201016001682A
:100BA00001F0020100F04AF841F00801016001681B
:100BB00001F0080100F042F841F0400101604FF4FB
:100BC0008141006800F0400000900098204600F04D
:100BD00065FA00224021284600F060FA00224FF416
:100BE0000071304600F05AFA4FF40050019001A90C
:100BF0004648029000200390304600F073F94FF40D
:100C0000814000F021F8204600F06CF9402000F00F
:100C10001BF8284600F066F98020019001A9002009
:100C200002900390284600F05DF94FF4007000F048
:100C30000BF8304600F056F906B070BD00910099EF
:100C40000021009101687047019001A901200290E4
:100C5000002003900490704770B50546224C286828
:100C6000616C88420DD104F184066423012231466F
:100C7000201DFFF7D2FA0122314604F14400FFF7AC
:100C800027FB28686168884226D164230122214617
:100C9000201DFFF7C2FA1E4D227895F864000A2A3B
:100CA0000FD10D222A5429180A224A704FF47A7360
:100CB000421E92B2294604F14400FFF7AEFA00202A
:100CC00001E02A54401C85F864002146201DBDE83F
:100CD00070400122FFF7FCBA70BD0000330A0D001E
:100CE0001004002000800240480800200048004016
:100CF000001401404038024000700040303802408B
:100D000000040240001802400008024000001110D8
:100D1000D0080020000000000000000000000000DB
:100D200000000000000000000000000000000000C3
:100D300000000000000000000000000000000000B3
:100D4000000000002DE9F04104000D4652D0494E4C
:100D500000F076F802D200F072F84BD12068464FCE
:100D6000810712D5400703D5B86840F4E050B86059
:100D70002078000703D5B86840F46040B860B868D0
:100D8000A16820F0F0000843B8602078C00729D59A
:100D90006068012802D13968890305E0022818BF7C
:100DA000032803D13968890103D423E0396889070E
:100DB00020D5B968890840EA8100B860FFF7EEFDE8
:100DC0008046B868616800F00C00B0EB810F09D074
:100DD000FFF7E4FDA0EB080041F289318842F0D32F
:100DE00003202AE0306800F00F00854204D200F0B2
:100DF00026F801D0012020E02078400705D5B8680A
:100E0000E16820F4E0500843B8602078000706D578
:100E1000B868216920F4604040EAC100B86000F081
:100E200035F8BA681549C2F30312895CC840144901
:100E30000860002000F068FD0020BDE8F0813570FA
:100E4000306800F00F00A84270470D4800687047F6
:100E50000B480C4A006812680B49C2F3822206E074
:100E60000748084A006812680749C2F34232895CA1
:100E7000C8407047003C024000380240941D000802
:100E80000C00002008380240281F000810B5124C42
:100E9000606800F00C00042802D0082802D019E095
:100EA0000E4810BD206800F03F0220680023400279
:100EB0002068C0F388104CBF08490949A1FB000114
:100EC00000F042FD2168C1F30141491C4900B0FB1B
:100ED000F1F010BD024810BD0438024000127A0043
:100EE0000024F4002DE9F84F02460023DFF8B48116
:100EF000DFF8B491DFF8B4A14FF00F0B01200C68BC
:100F0000984000EA040E864540F0C2804D689C007F
:100F1000022D18BF122D0FD1DD0802EB850C04F055
:100F20001C05DCF820600BFA05F7BE430F6907FAD1
:100F300005F53543CCF820504FEA430C03251668DD
:100F40000F7905FA0CF5ED4307F003072E4007FA79
:100F50000CF73E4316604E68012E18BF022E03D0D8
:100F6000112E18BF122E0FD19668CF682E4007FAA7
:100F70000CF73E439660566826EA00004E68C6F3BA
:100F800000169E4030435060D06828408D6805FAB6
:100F90000CF52843D0604868C00079D50020009047
:100FA00004F00C06DAF8000040F48040CAF80000B3
:100FB0000BFA06F4DAF8000000F480400090009884
:100FC000980859F8205025EA0404394DAA4208BF70
:100FD00000252CD0374DAA4208BF012527D0364D19
:100FE000AA4208BF022522D0344DAA4208BF0325D9
:100FF0001DD0334DAA4208BF042518D0314DAA4256
:1010000008BF052513D0304DAA4208BF06250ED0D3
:101010002E4DAA4208BF072509D02D4DAA4208BF70
:10102000082504D02B4DAA420CBF09250A25B5403E
:101030002C4349F820406FEA0E00D8F8004000EA3F
:10104000040C4C68E40348BF4EEA0C0CC8F800C01E
:10105000D8F8044000EA040C4C68A40348BF4EEAE8
:101060000C0CC8F804C0D8F8084000EA040C4C681E
:10107000E40248BF4EEA0C0CC8F808C0D8F80C408F
:1010800020404C68A40248BF4EEA0000C8F80C009B
:101090005B1C102BFFF432AFBDE8F18F02B90904DD
:1010A00081617047003C01400838014044380240EB
:1010B000000002400004024000080240000C024010
:1010C000001002400014024000180240001C0240C0
:1010D00000200240002402400901002806D5294AC8
:1010E00000F00F00104400F8041C7047264A115409
:1010F000704726490A684FF6FF0300021A4000F4C1
:10110000E0601043224A10430860704738B51F4B17
:101110001B68C3F30223C3F10704052C28BF042472
:101120001D1D072D34BF0023DB1E012505FA04F425
:10113000641E2140994005FA03F35B1E1A401143D7
:10114000BDE83440C8E7012100F01F029140114A78
:10115000FFE7400942F82010704710B5401EB0F17B
:10116000807F01D3012010BD0B4C60600F214FF038
:10117000FF30FFF7B1FF0020A060072020600020B3
:1011800010BD000018ED00E000E400E00CED00E010
:101190000000FA0500E100E010E000E0002200F0AD
:1011A0004BBC000080B50B48016841F40071016040
:1011B000016841F480610160016841F4807101605F
:1011C0000320FFF796FF002000F09EFBFFF7A0FA38
:1011D000002002BD003C0240F0B583B00446002070
:1011E00000900CB90120FEBD04F14405287818B91F
:1011F00068702046FFF7A6FA002001904FF4805651
:10120000DFF86003016841F480410160006800F488
:10121000804001900198DFF85003016821F400013B
:1012200001600168226A114301602068815941F020
:1012300001018151FFF7B2FB074620688159C907B8
:1012400007D5FFF7ABFBC01BB0F5FA7FF5D903203C
:101250005AE0006920F01C06FFF7F7FDDFF80C13D9
:10126000DFF80C230918914238BF46F008061BD35B
:10127000DFF80013DFF800230918914238BF46F069
:101280000C0621BFDFF8F4120918DFF8F4229142AE
:101290000AD3DFF8F0120818DFF8EC12884234BFE6
:1012A00046F0040646F01006206806614FF400423E
:1012B00000F068F800284ED1FF2000F0D7FB6068EE
:1012C00000283ED0FFF76AFB074641F2893600F05E
:1012D00055F8FFF763FBC01BB04212D200984007DD
:1012E000F5D54FF4805200F04DF8002833D1FFF7C8
:1012F00055FB074600F042F8FFF750FBC01BB04219
:1013000007D300F038F8012028700020687003200F
:10131000FEBD00988006EDD56A461021204600F0FB
:1013200034F8C0B9009840074CBF4FF4006000206B
:10133000E060009880074CBF00204FF48040A06020
:1013400012E0A168E068C9034003090C41EA1042B9
:1013500000F018F820B100F00EF801202870FEBD52
:1013600040F6FF7000F082FB002100F005F801203C
:1013700028700020FEBD012120467EE06A46012142
:10138000204602E0002120463AE02DE9F0410446E3
:1013900004F1440615463078822808BF02202DD07B
:1013A00082203070890120680269238ADB0202F002
:1013B0001C0203F478431A4301F4F861114341F02D
:1013C00001070761FFF7EAFA804601E02068076934
:1013D000F8070CD5FFF7E2FAA0EB0800B0F5803F64
:1013E000F4D30120307000207070032006E02068E4
:1013F000406980B22860012030700020BDE8F08193
:10140000F8B5044604F144052878422801D10220A9
:10141000F2BD4220287092B220680369268A426198
:10142000F60203F01C0306F478468901334301F405
:10143000F8612068194341F003060661FFF7AEFA30
:10144000074601E020680669F00709D5FFF7A6FA0C
:10145000C01BB0F5803FF5D300F006F80320F2BDC5
:10146000012028700020F2BD012028700020687043
:101470007047C569012000F0F9BA38B5044629B1B2
:101480004FF40060E0604FF48040A0602168E069A4
:101490000A683E4B00280CBF4FF4806000201A40C1
:1014A000A3681A43E3681A43104340F400700860CD
:1014B00001200D6800F0DAFA2068056040214160E3
:1014C0004568FFF7D7FF2068456000218160C16053
:1014D0004FF641728169114041F080018161856957
:1014E000FFF7C8FF206885610021C161FFF7C1FFD8
:1014F0002068274BC56141F2180142581A4042F05A
:10150000087242F0040242504558FFF7B3FF2068CA
:101510004FF4805108441F49856101600568FFF759
:10152000A9FF20684FF4805145500844A169012962
:1015300005D1C16941F4803141F04001C161606968
:1015400042790379144943EA02220A608378C27817
:101550001B0443EA02624378007842EA0322104304
:10156000486031BD443802400438014000D3CEFE0B
:10157000C0E1E40040F1E9FD40787D0100796CFCB8
:10158000005A6202001F0AFA80F0FA020F8120FF5F
:10159000233FDEF88020C1024080024030B58BB08E
:1015A000054600240DB9012049E0032085F8B90360
:1015B0002846FFF7A0F9286800F0A3FA83B000F0EE
:1015C00040F80EBC286800F065FA2868002100F099
:1015D0009EFA1C2000FB04F12944383101220C70D2
:1015E000CC804A70641C00220F2CCA708A60CA60CA
:1015F0004A61EFD30024002300FB04F129444FF497
:10160000FC720A4453701470CC87D3709360D3601B
:1016100053612A6802EB8402641C0F2CC2F8043167
:10162000EAD383B000F00DF80EBC286800F082FA0F
:10163000012085F8B903286800F026FB00200BB0D4
:1016400030BD291D6846342200F04EBB2DE9F84319
:10165000040015D02078A84DC00743D5A86800F035
:101660000C00042807D0A86800F00C00082809D155
:101670006868400206D52868800333D5606888BB57
:10168000012036E16068B0F5803F06D0B0F5A02FAC
:10169000286806D140F480202860286840F4803013
:1016A00005E020F480302860286820F4802028603D
:1016B000606858B1FFF772F907462868800311D4B3
:1016C000FFF76CF9C01B6528F7D30FE1FFF766F948
:1016D00007462868800305D5FFF760F9C01B652819
:1016E000F7D303E12078854E800718D5A86810F05D
:1016F0000C0F07D0A86800F00C00082823D16868F8
:10170000400220D42868800702D5E0680128B7D1BC
:101710002868216920F0F80040EAC100286020789C
:1017200000073AD56169764851B301210160FFF79E
:1017300035F90746686F80072FD4FFF72FF9C01BD4
:101740000328F7D3D2E0E06868B101203060FFF7EA
:1017500025F9074628688007DAD4FFF71FF9C01B70
:101760000328F7D3C2E03060FFF718F9074628686E
:101770008007D4D5FFF712F9C01B0328F7D3B5E0D3
:101780000160FFF70BF90746686F800705D5FFF783
:1017900005F9C01B0328F7D3A8E02078400761D5DE
:1017A000286CC0004FF000080CD4CDF800804FF03A
:1017B0000108286C40F080502864286C00F08050AC
:1017C00000900098DFF83C91D9F80000C00512D4D1
:1017D000D9F8000040F48070C9F80000FFF7DEF887
:1017E0000746D9F80000C00505D4FFF7D7F8C01B9D
:1017F0000328F6D37AE0A068012805D00528286FD1
:1018000006D140F004002867286F40F0010005E091
:10181000400840002867286F20F00400286741F244
:101820008939A06858B1FFF7B9F80746286F8007D3
:1018300011D4FFF7B3F8C01B4845F7D356E0FFF7C4
:10184000ADF80746286F800705D5FFF7A7F8C01B3E
:101850004845F7D34AE0B8F1000F03D0286C20F0D8
:1018600080502864A069002842D0A96801F00C01CA
:1018700008293FF405AF02282BD100203066FFF77E
:101880008DF807462868800105D5FFF787F8C01B4B
:101890000328F7D32AE0E069216A0843616A40EA35
:1018A0008110A16A891EC903090C40EA0140E16A5E
:1018B00040EA0160686001203066FFF76FF8074674
:1018C0002868800114D4FFF769F8C01B0328F7D3F8
:1018D0000CE000203066FFF761F8074628688001B9
:1018E00006D5FFF75BF8C01B0328F7D3032000E001
:1018F0000020BDE8F28300BF0038024000004742EC
:10190000800E47420070004038B50D4D29780446DE
:101910004FF47A70B0FBF1F00A490968B1FBF0F0BE
:10192000FFF71BFC50B9102C08D2002221464FF0C3
:10193000FF30FFF7EBFBAC60002032BD012032BD71
:10194000000000200C0000201B4213D1094236D1B8
:101950002AB18446B0FBF2F002FB10C2704700F0DF
:10196000EFB9FCD30022002370470B0002000021D6
:1019700000207047904271EB030CF6D370B5B1FABA
:1019800081F4B3FA83F52C1BA340C4F1200532FA8D
:1019900005F63343A2405FF00046E64002E05B08F4
:1019A0005FEA3202841A71EB030524BF2046294600
:1019B0007641F4D302000B003000002170BD012AF3
:1019C000CFD970B5140C20D0B1FA81F4B2FA82F5F7
:1019D000C4F120046419B4F12006D6D3B2405FF0FC
:1019E0000044F440002502E052085FEA3303C61ABF
:1019F00071EB020E24BF3046714664416D41F3D352
:101A000002000B002000290070BD0C46B1FBF2F172
:101A100002FB11452D0445EA1045B5FBF2F402FB2B
:101A2000145580B240EA0545B5FBF2F002FB1052B6
:101A300040EA044070BD000000B500BF13009646A8
:101A40009446103928BFA0E80C50FAD85FEA417CD0
:101A500028BF0CC048BF40F8042BC90728BF20F896
:101A6000022B48BF00F8012B00BD000038B504462A
:101A7000FEF794FF14F1010F054602D004480078E8
:101A80002418FEF78BFF401BA042FAD331BD00BFE4
:101A9000000000200EB418B504460898012817D19C
:101AA000A06BDFF8341220F48030A063E0680840B7
:101AB000E060E06820F44010E0600F98012803D156
:101AC000E06840F48010E060204600F0E9F809E0AA
:101AD000E06840F04000E060204600F0E1F84FF49C
:101AE0008030A0630698012807D1A06840F0060066
:101AF000A060A06840F02000A060002012BC5DF84B
:101B000010FB81684908490081600020704780B55A
:101B1000C26822F0C0420129C26003D1C16841F00D
:101B2000005103E019B9C16841F08041C160322021
:101B300000F0B2B80EB4FCB50446119DA06B0026AF
:101B4000002D0CBF40F4001040F4002004F560614B
:101B5000A06304F500670E60386838600C980128AF
:101B600005D10998002814BF0121002100E00321BC
:101B7000204600F081F81021204600F061F8204650
:101B800000F06DF83E617E614FF0FF30B861FE619C
:101B9000FF204FF0904103E0002313619060761C1A
:101BA000079A96420AD204EB461202F510621368B5
:101BB000002B4EBF116000231360EDE7002203E00D
:101BC00000261E619860521C079B9A420AD204EBC1
:101BD000421303F530631E68002E4EBF19600026C5
:101BE0001E60EDE7386920F4807038610A9801289A
:101BF00009D1DFF8E8103963396B41F4803141F0E5
:101C000003013963396B0021A1616FF0804161618B
:101C100000F05BF8DFF8C8100843A0610D9818B118
:101C2000A06940F00800A061012D05D1A06940F035
:101C3000804040F00400A0610020F6BC5DF810FB7D
:101C4000890141F020010161DFF89810491E01D19E
:101C50000320704702699206F8D4002070471021D3
:101C60000161DFF88010491E01D10320704702692D
:101C7000D206F8D40020704700F50060FFE7026844
:101C8000114301600020704780B500F50060416895
:101C900041F0020141600320FFF7E8FE002002BD91
:101CA000DFF840100A46521E08D00369002BFAD50F
:101CB000026942F001020261491E01D1032070470E
:101CC0000269D207F8D40020704718B9A06940F023
:101CD0001000A061A0697047BFFFBDFF0001800038
:101CE00000383C80410D0300103A07D330B4B1E80E
:101CF0003810103AA0E83810F9D230BC530724BF8E
:101D0000B1E80810A0E8081044BF51F8043B40F8BF
:101D1000043BD20724BF31F8022B20F8022B44BF2A
:101D20000B7803707047083A07D3B1E80810083AF7
:101D300040F8043B40F804CBF7D25307E4E7000037
:101D4000704700000E480F4A016841F470010160BD
:101D50000D48016841F001010160002181600168C6
:101D60001140016009494160016821F4802101604E
:101D70000021C1604FF00060054908607047000015
:101D800088ED00E0FFFFF6FE00380240103000242E
:101D900008ED00E000000000000000000102030464
:101DA0000607080919E050F8041BCB0744BFA9F146
:101DB00001035918121F0023042A41F8043BF9D2E9
:101DC0005FEA827C0B4604D54FF0000CA1F800C0FE
:101DD0009B1CD10744BF0021197050F8042B002A26
:101DE000E1D1704710B450F8041B79B10268436820
:101DF00002440830DC0744BFA9F10104E31852F89B
:101E0000044B43F8044B091FF9D1ECE710BC7047B1
:101E10007047FEE7FEE7FEE7FEE770477047704752
:101E200000F00AB80248FEF788BA0248FEF785BA01
:101E30004C0800208C08002002484168027889186C
:101E4000416070470000002010B5074979441831FF
:101E5000064C7C44163404E00A68081D1144884787
:101E60000146A142F8D110BD2C0000004C0000003A
:101E70004EF68851CEF20001086840F47000086008
:101E8000BFF34F8FBFF36F8F4FF00070E1EE100A7A
:101E90007047000011FFFFFF28050000100400201C
:101EA0000000000041FFFFFF100000006000000084
:101EB000000000200000000000F00BF8002801D016
:101EC000FFF7C2FF0020AFF30080FEF781FD00F0B6
:101ED00002F80120704700F001B8000007463846BC
:101EE00000F002F8FBE7000080B5AFF30080024A83
:101EF00011001820ABBEFBE7260002000148804716
:101F000001480047451D00081D1F00080100000092
:101F100000000000100000000024F400AFF3008077
:101F2000FFF7A6FFFFF7C8FF00000000010203044F
:101F3000FFF7FEBFFFF7FEBFFFF7FEBFFFF7FEBFD5
:101F4000FFF7FEBFFFF7FEBFFFF7FEBFFFF7FEBFC5
:101F5000FFF7FEBFFFF7FEBFFFF7FEBFFFF7FEBFB5
:101F6000FFF7FEBFFFF7FEBFFFF7FEBFFFF7FEBFA5
:101F7000FFF7FEBFFFF7FEBFFFF7FEBFFFF7FEBF95
:101F8000FFF7FEBFFFF7FEBFFFF7FEBFFFF7FEBF85
:101F9000FFF7FEBFFFF7FEBFFFF7FEBFFFF7FEBF75
:101FA000FFF7FEBFFFF7FEBFFFF7FEBFFFF7FEBF65
:101FB000FFF7FEBFFFF7FEBFFFF7FEBFFFF7FEBF55
:101FC000FFF7FEBFFFF7FEBFFFF7FEBFFFF7FEBF45
:101FD000FFF7FEBFFFF7FEBFFFF7FEBFFFF7FEBF35
:101FE000FFF7FEBFFFF7FEBFFFF7FEBFFFF7FEBF25
:101FF000FFF7FEBFFFF7FEBFFFF7FEBFFFF7FEBF15
:10200000FFF7FEBFFFF7FEBFFFF7FEBFFFF7FEBF04
:10201000FFF7FEBFFFF7FEBFFFF7FEBFFFF7FEBFF4
:10202000FFF7FEBFFFF7FEBFFFF7FEBFFFF7FEBFE4
:10203000FFF7FEBFFFF7FEBFFFF7FEBFFFF7FEBFD4
:10204000FFF7FEBFFFF7FEBFFFF7FEBFFFF7FEBFC4
:10205000FFF7FEBFFFF7FEBFFFF7FEBFFFF7FEBFB4
:10206000FFF7FEBFFFF7FEBFFFF7FEBFFFF7FEBFA4
:10207000FFF7FEBFFFF7FEBFFFF7FEBFFFF7FEBF94
:10208000FFF7FEBFFFF7FEBFFFF7FEBFFFF7FEBF84
:0400000508001F1DB3
:00000001FF
