:020000040800F2
:10000000B80900201D220008292100082B21000822
:100010002D2100082F2100083121000800000000D8
:100020000000000000000000000000003321000874
:1000300035210008000000003721000839210008A0
:100040004122000845220008492200084D220008EC
:100050005122000855220008592200085D2200089C
:100060006122000865220008692200086D2200084C
:100070007122000875220008792200087D220008FC
:100080008122000885220008892200088D220008AC
:100090009122000895220008992200089D2200085C
:1000A000A1220008A5220008A9220008AD2200080C
:1000B000B1220008B5220008B9220008BD220008BC
:1000C000C1220008C5220008C9220008CD2200086C
:1000D000D1220008D52200083D2100084321000854
:1000E000D9220008DD220008E1220008E5220008EC
:1000F000E9220008ED220008F1220008F52200089C
:10010000F9220008FD220008012300080523000849
:10011000092300080D2300081123000815230008F7
:10012000192300081D2300082123000825230008A7
:10013000292300082D230008312300083523000857
:10014000392300083D230008412300084523000807
:10015000492300084D2300085123000849210008C5
:1001600055230008592300085D2300086123000877
:1001700065230008692300086D23000800000000C3
:100180007123000875230008792300087D230008E7
:100190008123000885230008892300088D23000897
:1001A00091230008952300089923000838B505001D
:1001B00001D1012032BD05F13804607818B92070F2
:1001C000284600F022FB00F017F800F00DF821F0AF
:1001D0002A01FFE74161286800F019F860602020DB
:1001E0006070A070002032BD2868016921F4904140
:1001F0000161286841697047242060702868C168DF
:1002000021F40051C160284600F0C2B92068C168DD
:1002100041F40051C160002070472DE9F8430446C5
:1002200004F138070D46787820281646984641D1C3
:100230000DB1300001D101203DE03878012839D0DE
:1002400001203870002078602120787000F0E2FBF7
:10025000A6848146E68403E0216815F8010B486016
:10026000E08CC0B1E08C401EE08400F026F80DD197
:1002700000F02AF8B8B928882168C0F3080048605F
:100280002069002814BF6D1CAD1CE9E700F01CF8C4
:100290000028E1D007E0CDF800804B460022402145
:1002A00000F014F808B1032005E020207870002049
:1002B000387000E00220BDE8F2834B46A068CDF81C
:1002C0000080B0F5805F7047002280212046DBE08F
:1002D00010B500F138039C78202C1CD109B1140012
:1002E00001D1012010BD1C78012C14D001241C70F8
:1002F00081628285C2850021596022219970002186
:10030000197001684A6942F001024A610068C168D7
:1003100041F4907101E0022010BDC160002010BDC9
:10032000C1602068416949084900416170474169DD
:1003300021F040014161606B704738B50446236885
:100340001868D9685A6910F00F0507D182065DD583
:100350008A065BD52046BDE83240D5E0D50702D4F9
:1003600011F4907F52D0C30705D5CB0503D5E36BBD
:1003700043F00103E363430705D5D30703D5E36BDC
:1003800043F00203E363830705D5D30703D5E36B8B
:1003900043F00403E363030705D5D20703D5E26BFB
:1003A00042F00802E263E26B002A6CD0800604D5BA
:1003B000880644BF204600F0A7F820684069E16B3A
:1003C000090701D440061BD5204600F088F82068B4
:1003D000416949060FD5FFF7AAFF60B10FF21D1161
:1003E0000165606B00F01CFB00284CD0606B016D58
:1003F000BDE8344008472046BDE8324000F022BB4B
:10040000204600F01FFB0020E06331BD02062AD524
:100410000A0628D594F83900212834D1A068B0F50F
:10042000805F206A0BD10088C0F308005860206903
:100430000028206A0CBF801C401C206203E0411C85
:10044000216200785860E08C401EE08480B2D0B910
:100450002068C16821F08001C1602068C16841F056
:100460004001C16031BD40060DD548060BD5D868A6
:1004700020F04000D860202084F839002046BDE8F4
:10048000324000F0E0BA31BD2DE9F041069E04464D
:100490000D4690461F46206800682840A8420CBFC1
:1004A00001200020404517D116F1010FF3D026B1ED
:1004B00000F0B0FAC01B8642EDD22068C16821F47A
:1004C000D071FFF72DFF04F13800202141708170B9
:1004D00000210170032000E00020BDE8F0810168E8
:1004E000CA6822F49072CA6001684A6952085200D0
:1004F0004A61202180F83A1070470000806B00218B
:10050000C185C18400F09EBA80B590F83A102229C6
:100510003CD18168B1F5805F12D10269816A002AFD
:100520000268526805D1C2F308020A80816A891CF8
:1005300004E002F0FF020A80816A491C81620FE038
:1005400001690029816A04D14A1C826202685268EA
:1005500005E04A1C82620268526802F07F020A705B
:10056000C18D491EC18589B271B90168CA6822F47A
:100570009072CA6001684A69520852004A6120219B
:1005800080F83A1000F004FC002002BD022002BDF9
:100590002DE9F0470446642520680169E26821F4EA
:1005A0004051114301611926C168484A1140A268AF
:1005B00011432269114362691143E2691143C16029
:1005C0004169A26921F4407111434161E3694049E5
:1005D000404AB3F5004F3AD1904218BF88420ED13D
:1005E00000F00AFD074600F007FD804600F004FD1C
:1005F000814600F001FD824600F0FEFC0DE000F0B7
:10060000F3FC074600F0F0FC804600F0EDFC81466C
:1006100000F0EAFC824600F0E7FC06FB08F36168A4
:10062000490000F067F8DB003233B3FBF5F3B2FBAF
:10063000F1F25B00B2FBF5F203F4F87300F04CF852
:10064000C0003230B0FBF5F000F0070038E0904217
:1006500018BF88420ED100F0CFFC074600F0CCFC5A
:10066000804600F0C9FC814600F0C6FC824600F0DE
:10067000C3FC0DE000F0B8FC074600F0B5FC804676
:1006800000F0B2FC814600F0AFFC824600F0ACFC0A
:1006900006FB08F36168890000F02CF81B01323377
:1006A000B2FBF1F2B3FBF5F3B2FBF5F203F0F003AA
:1006B00000F012F800013230B0FBF5F000F00F004E
:1006C000216880188860BDE8F0870000F369FFFFAB
:1006D000001401400010014003EB0212704306FBBE
:1006E0000AF3B0FBF1F0B3FBF1F3B0FBF5F005FB5F
:1006F00010307047B3FBF1F306FB07F206FB09F776
:10070000B7FBF1F7B7FBF5F705FB173370470000B0
:1007100081B000200090DFF8D002416841F48041B0
:100720004160416801F480410091009900210091ED
:10073000016841F080510160006800F08050009035
:10074000009801B0704710B586B000F0F7F8206847
:10075000A64988424CD100200090A548016841F08C
:1007600000710160016801F0007100F0C3F841F010
:1007700080610160016801F0806100F0BBF841F028
:1007800000610160016801F0006100F0B9F80168E2
:1007900001F0040100F0D7F841F0020101600168A6
:1007A00001F0020100F0A6F841F04001016001A94A
:1007B000006800F04000009000983220019000F0A6
:1007C0001BF88C4800F05AFC862000F013F88A4889
:1007D00000F054FC4FF4005000F00CF8874800F093
:1007E0004DFC4FF4205000F005F8854800F046FC21
:1007F00006B010BD019001A90220029000200390D4
:10080000032004900B200590704710B586B000F0CF
:1008100095F821687B4A7C4C7548914220D1002193
:100820000091016941F400310161016901F4003175
:1008300000F089F800F078F8082000F053F807205D
:1008400005906D4800F01AFC2020019001A900F0ED
:1008500060F800220021262000F024FD26203DE043
:100860006A4A914218D100210091016941F4802126
:100870000161016901F4802100F03CF800F054F8B6
:100880004FF44070019000F044F80022002127202E
:1008900000F008FD272021E05D4A914220D100218F
:1008A0000091416941F020014161416901F020015D
:1008B00000F026F801A9006800F0040000900098FC
:1008C000C02000F00FF8082005904A4800F0D6FB41
:1008D00000220021472000F0E5FC472000F0FFFC4B
:1008E00006B010BD01900220029001200390032069
:1008F00004907047009100990021009101687047B1
:100900000091009900210091016841F0040101600B
:1009100070470220029001200390032004900720DA
:100920000590204600F0AABB41F00801016001A932
:10093000006800F00800009000987047044601A885
:10094000142100F0F7BC009100990021009101688A
:1009500041F001010160016801F00101009100997D
:10096000002100910168704730B587B0FFF7E6FFBE
:100970002068B0F1A04F34D10020009001A91C4C98
:100980001D4D206840F001002060206800F001004B
:10099000009000984FF4E85001900220029000204F
:1009A0000390032004900A200590284600F066FB7F
:1009B0004FF40070019001A9002002900390284696
:1009C00000F05CFB606840F08000606000200090F8
:1009D000606940F480406061606900F4804000908C
:1009E000009807B030BD000040380240008002404F
:1009F000303802400008024000000240000402407B
:100A00000018024000440040000C02400048004032
:100A10000014014001484068704700BFA80500204D
:100A200090F83510022903D08021416501207047DC
:100A3000052180F835100068016849084900016007
:100A400000207047704770472DE9FC4100F076FCAC
:100A500000F0CCF800F016F9DFF8F443DFF8F40307
:100A6000DFF8F463DFF8F473A06604F17805012081
:100A7000E0668021002028808DF800008DF80300BA
:100A8000ADF80400A860E8608DF801104FF4000094
:100A9000E12128618DF80210C5F804D004F1680046
:100AA00000F066FCDFF8B80330604FF416584FF4DE
:100AB000E13070600020B060F06030610C20706147
:100AC0000020B061F0613046FFF770FB4FF0A040AE
:100AD000A8630420E863022068640020A864E86436
:100AE00002202865012068650020A865E8650120CE
:100AF00068660020A86604F1B00000F01BFED94D26
:100B0000D9482860C5F804800020A860E860286102
:100B10000C2068610020A861E8612846FFF746FBC9
:100B2000012000F05FFED1487860C7F808800020FF
:100B3000F860386178610C20B8610020F861386293
:100B4000381DFFF733FB0122791C2846FFF7C0FB55
:100B5000012239463046FFF7BBFB01223946381DDA
:100B6000FFF7B6FB64230322B8A13046FFF755FB1D
:100B700000F04CFE00F05EFE00F078FE34E02E281F
:100B800016D12078421C227004F2A446D2B2211D54
:100B9000304600F0A9FE4FF4FA6000F023FE227800
:100BA000642331462846FFF738FB002020700026DA
:100BB0002078401C2070761C00F079FEA119087185
:100BC000A01900790100DAD1786C01280CD100F06D
:100BD0007FFE48B94FF49460211864230322381D26
:100BE000FFF71BFB002078640026E5E700B593B013
:100BF0000FF2B82106A891EC0C0B80EC0C0B01A8AD
:100C0000142100F097FB002000909948016841F002
:100C100080510160006800F0805000900098002032
:100C200000909448016841F440410160006800F47C
:100C3000404000900098012006904FF4A0200790BB
:100C400002200C904FF480000D9004200E90A820FC
:100C50000F90022010900720119006A800F080FE4F
:100C60000F200190052102200290002003904FF4F4
:100C7000A05004904FF48050059001A800F02EF988
:100C800013B000BD70B586B001A8142100F052FB6E
:100C90000020009000227848784C0168784D794E09
:100CA00041F004010160016801F0040100F062F804
:100CB00041F080010160016801F0800100F05AF804
:100CC00041F001010160016801F0010100F052F8FA
:100CD00041F002010160016801F0020100F04AF8F0
:100CE00041F008010160016801F0080100F042F8DC
:100CF00041F0400101604FF48141006800F0400084
:100D000000900098204600F095FA002240212846E5
:100D100000F090FA00224FF40071304600F08AFA99
:100D20004FF40050019001A9574802900020039011
:100D3000304600F0A3F94FF4814000F021F820463E
:100D400000F09CF9402000F01BF8284600F096F9CE
:100D50008020019001A9002002900390284600F015
:100D60008DF94FF4007000F00BF8304600F086F972
:100D700006B070BD00910099002100910168704794
:100D8000019001A901200290002003900490704777
:100D90002DE9F0410746314E386871683B4C2E4DC5
:100DA000884213D100F07CF8707800F066FD40B9FD
:100DB0006423032204F16801301DFFF72EFA01209D
:100DC00070640122711C301DFFF782FADFF89480F5
:100DD0003868D8F8001088420CD164230122711CB5
:100DE000301DFFF71AFA00F05BF80122711C404633
:100DF000FFF76EFA38682968884225D164230122FA
:100E000031462846FFF709FA94F86400377801461E
:100E100063182E2F024603D100F03AF8301D04E08B
:100E20002C2F06D100F034F84046FFF7F6F90020E9
:100E300001E06754401C84F8640031462846BDE850
:100E4000F0410122FFF744BABDE8F081320A0D00FB
:100E5000A000002000800240000A0020B809002005
:100E600000480040400A00200014014000440040B7
:100E70004038024000700040303802400004024018
:100E80000018024000080240000011103400002049
:100E90000D20605421460A2058704FF47A73704731
:100EA00064230122711C2846FFF7B7B90000000037
:100EB0000000000000000000000000000000000032
:100EC0000000000000000000000000000000000022
:100ED0000000000000000000000000002DE9F041CB
:100EE00004000D4652D0494E00F076F802D200F0D0
:100EF00072F84BD12068464F810712D5400703D5C1
:100F0000B86840F4E050B8602078000703D5B868AE
:100F100040F46040B860B868A16820F0F000084371
:100F2000B8602078C00729D56068012802D13968E7
:100F3000890305E0022818BF032803D13968890115
:100F400003D423E03968890720D5B968890840EAC5
:100F50008100B860FFF75EFD8046B868616800F008
:100F60000C00B0EB810F09D0FFF754FDA0EB080097
:100F700041F289318842F0D303202AE0306800F042
:100F80000F00854204D200F026F801D0012020E0B5
:100F90002078400705D5B868E16820F4E0500843A0
:100FA000B8602078000706D5B868216920F4604051
:100FB00040EAC100B86000F035F8BA681549C2F3DC
:100FC0000312895CC84014490860002000F026FE26
:100FD0000020BDE8F0813570306800F00F00A842B5
:100FE00070470D48006870470B480C4A006812684B
:100FF0000B49C2F3822206E00748084A00681268DB
:101000000749C2F34232895CC8407047003C024045
:1010100000380240A0200008B40500200838024033
:101020003822000810B5124C606800F00C0004284B
:1010300002D0082802D019E00E4810BD206800F048
:101040003F022068002340022068C0F388104CBF94
:1010500008490949A1FB000100F000FE2168C1F325
:101060000141491C4900B0FBF1F010BD024810BD20
:101070000438024000127A000024F4002DE9F84FF1
:1010800002460023DFF8B481DFF8B491DFF8B4A1A1
:101090004FF00F0B01200C68984000EA040E8645C3
:1010A00040F0C2804D689C00022D18BF122D0FD158
:1010B000DD0802EB850C04F01C05DCF820600BFA5F
:1010C00005F7BE430F6907FA05F53543CCF8205004
:1010D0004FEA430C032516680F7905FA0CF5ED432A
:1010E00007F003072E4007FA0CF73E4316604E68E0
:1010F000012E18BF022E03D0112E18BF122E0FD1B1
:101100009668CF682E4007FA0CF73E439660566803
:1011100026EA00004E68C6F300169E403043506039
:10112000D06828408D6805FA0CF52843D0604868DF
:10113000C00079D50020009004F00C06DAF8000019
:1011400040F48040CAF800000BFA06F4DAF8000018
:1011500000F4804000900098980859F8205025EA43
:101160000404394DAA4208BF00252CD0374DAA42AD
:1011700008BF012527D0364DAA4208BF022522D03C
:10118000344DAA4208BF03251DD0334DAA4208BFE3
:10119000042518D0314DAA4208BF052513D0304D83
:1011A000AA4208BF06250ED02E4DAA4208BF072529
:1011B00009D02D4DAA4208BF082504D02B4DAA42C4
:1011C0000CBF09250A25B5402C4349F820406FEA99
:1011D0000E00D8F8004000EA040C4C68E40348BF55
:1011E0004EEA0C0CC8F800C0D8F8044000EA040C21
:1011F0004C68A40348BF4EEA0C0CC8F804C0D8F8E9
:10120000084000EA040C4C68E40248BF4EEA0C0CAB
:10121000C8F808C0D8F80C4020404C68A40248BF69
:101220004EEA0000C8F80C005B1C102BFFF432AF34
:10123000BDE8F18F02B9090481617047003C0140AB
:1012400008380140443802400000024000040240D7
:1012500000080240000C024000100240001402404E
:1012600000180240001C02400020024000240240FE
:101270000901002806D5294A00F00F00104400F8A3
:10128000041C7047264A1154704726490A684FF6D5
:10129000FF0300021A4000F4E0601043224A1043AA
:1012A0000860704738B51F4B1B68C3F30223C3F1B6
:1012B0000704052C28BF04241D1D072D34BF00235F
:1012C000DB1E012505FA04F4641E2140994005FA4D
:1012D00003F35B1E1A401143BDE83440C8E7012107
:1012E00000F01F029140114AFFE7400942F8201028
:1012F000704710B5401EB0F1807F01D3012010BDB2
:101300000B4C60600F214FF0FF30FFF7B1FF002062
:10131000A06007202060002010BD000018ED00E054
:1013200000E400E00CED00E00000FA0500E100E060
:1013300010E000E0002200F009BD000080B50B487D
:10134000016841F400710160016841F4806101604D
:10135000016841F4807101600320FFF796FF0020CF
:1013600000F05CFCFFF7D4F9002002BD003C024015
:10137000F0B583B00446002000900CB90120FEBDFA
:1013800004F14405287818B968702046FFF7DBF9A6
:10139000002001904FF48056DFF86003016841F4AB
:1013A00080410160006800F4804001900198DFF8FE
:1013B0005003016821F4000101600168226A1143B1
:1013C00001602068815941F001018151FFF722FB42
:1013D000074620688159C90707D5FFF71BFBC01BCB
:1013E000B0F5FA7FF5D903205AE0006920F01C0619
:1013F000FFF7F7FDDFF80C13DFF80C230918914213
:1014000038BF46F008061BD3DFF80013DFF80023CF
:101410000918914238BF46F00C0621BFDFF8F412DC
:101420000918DFF8F42291420AD3DFF8F012081805
:10143000DFF8EC12884234BF46F0040646F010068E
:10144000206806614FF4004200F068F800284ED191
:10145000FF2000F0C7F9606800283ED0FFF7DAFAF5
:10146000074641F2893600F055F8FFF7D3FAC01B62
:10147000B04212D200984007F5D54FF4805200F0E8
:101480004DF8002833D1FFF7C5FA074600F042F8BF
:10149000FFF7C0FAC01BB04207D300F038F80120B4
:1014A0002870002068700320FEBD00988006EDD5EE
:1014B0006A461021204600F034F8C0B90098400771
:1014C0004CBF4FF400600020E060009880074CBFE4
:1014D00000204FF48040A06012E0A168E068C903DA
:1014E0004003090C41EA104200F018F820B100F066
:1014F0000EF801202870FEBD40F6FF7000F072F972
:10150000002100F005F8012028700020FEBD012117
:1015100020467EE06A460121204602E00021204666
:101520003AE02DE9F041044604F1440615463078CE
:10153000822808BF02202DD08220307089012068C7
:101540000269238ADB0202F01C0203F478431A4387
:1015500001F4F861114341F001070761FFF75AFAFE
:10156000804601E020680769F8070CD5FFF752FABA
:10157000A0EB0800B0F5803FF4D3012030700020CC
:101580007070032006E02068406980B22860012066
:1015900030700020BDE8F081F8B5044604F1440540
:1015A0002878422801D10220F2BD4220287092B250
:1015B00020680369268A4261F60203F01C0306F4E0
:1015C00078468901334301F4F8612068194341F0FA
:1015D00003060661FFF71EFA074601E02068066968
:1015E000F00709D5FFF716FAC01BB0F5803FF5D319
:1015F00000F006F80320F2BD012028700020F2BDA3
:1016000001202870002068707047C569012000F033
:10161000E9B838B5044629B14FF40060E0604FF4F2
:101620008040A0602168E0690A683E4B00280CBF3A
:101630004FF4806000201A40A3681A43E3681A43FD
:10164000104340F40070086001200D6800F0CAF8F3
:1016500020680560402141604568FFF7D7FF20689A
:10166000456000218160C1604FF64172816911407F
:1016700041F0800181618569FFF7C8FF20688561BD
:101680000021C161FFF7C1FF2068274BC56141F20E
:10169000180142581A4042F0087242F004024250C7
:1016A0004558FFF7B3FF20684FF4805108441F49A5
:1016B000856101600568FFF7A9FF20684FF480513C
:1016C00045500844A169012905D1C16941F480311F
:1016D00041F04001C161606942790379144943EAEC
:1016E00002220A608378C2781B0443EA02624378CC
:1016F000007842EA03221043486031BD443802407A
:101700000438014000D3CEFEC0E1E40040F1E9FD21
:1017100040787D0100796CFC005A6202001F0AFAD1
:1017200080F0FA020F8120FF233FDEF88020C10203
:101730004080024030B58BB0054600240DB9012031
:1017400049E0032085F8B9032846FFF70DF928681A
:1017500000F04DFB83B000F040F80EBC286800F0AC
:101760000FFB2868002100F048FB1C2000FB04F15F
:101770002944383101220C70CC804A70641C00224C
:101780000F2CCA708A60CA604A61EFD3002400231C
:1017900000FB04F129444FF4FC720A4453701470A6
:1017A000CC87D3709360D36053612A6802EB8402C4
:1017B000641C0F2CC2F80431EAD383B000F00DF89A
:1017C0000EBC286800F02CFB012085F8B9032868BE
:1017D00000F0D0FB00200BB030BD291D684634223C
:1017E00000F008BC38B50446FFF714F914F1010FF6
:1017F000054602D0044800782418FFF70BF9401B77
:10180000A042FAD331BD00BFA805002038B5144C62
:1018100000F008F800F021F84FF47A73122205F175
:101820000C0112E00F4D4FF47A730822294620462E
:10183000FEF7F3BC38B50C4CFFF7F4FF00F00DF8E1
:101840004FF47A73122205F120012046FEF7E5FCE1
:10185000BDE832406420FFF7C5BF6420FFF7C2BF78
:10186000BC09002000000020400A00201D48002183
:1018700041630163C1628162704730B51949CA6A28
:1018800002F10C0328252824B3FBF5F504FB1533DE
:101890008D6AAB4201D1002030BD521C2823B2FB1F
:1018A000F3F304FB1322CA628854012030BD0D48B3
:1018B000816AC26A8A4201D100207047491C2822ED
:1018C000B1FBF2F2282303FB12118162405C7047E6
:1018D0000448C16A806A814201D10020704701201A
:1018E00070470000800A002081423ABF5318984296
:1018F00000F070BB8018990707D0521E24BF13F860
:10190000011D00F8011DF6D8704781071CD1103A5F
:1019100007D330B433E93210103A20E93210F9D24B
:1019200030BC1032121F24BF53F8041D40F8041DB0
:10193000F8D838BF121D521E24BF13F8011D00F83D
:10194000011DF8D8704700BF083A07D333E90210E9
:10195000083A40F804CD40F8041DF7D20832EAE70F
:101960002DE9F843040015D02078A84DC00743D5D1
:10197000A86800F00C00042807D0A86800F00C004C
:10198000082809D16868400206D52868800333D545
:10199000606888BB012036E16068B0F5803F06D002
:1019A000B0F5A02F286806D140F480202860286870
:1019B00040F4803005E020F480302860286820F46E
:1019C00080202860606858B1FFF724F8074628682F
:1019D000800311D4FFF71EF8C01B6528F7D30FE171
:1019E000FFF718F807462868800305D5FFF712F8B7
:1019F000C01B6528F7D303E12078854E800718D5F2
:101A0000A86810F00C0F07D0A86800F00C00082898
:101A100023D16868400220D42868800702D5E06896
:101A20000128B7D12868216920F0F80040EAC100F8
:101A30002860207800073AD56169764851B30121C2
:101A40000160FEF7E7FF0746686F80072FD4FEF7B7
:101A5000E1FFC01B0328F7D3D2E0E06868B10120A2
:101A60003060FEF7D7FF074628688007DAD4FEF714
:101A7000D1FFC01B0328F7D3C2E03060FEF7CAFFD6
:101A8000074628688007D4D5FEF7C4FFC01B03288B
:101A9000F7D3B5E00160FEF7BDFF0746686F80072A
:101AA00005D5FEF7B7FFC01B0328F7D3A8E02078C1
:101AB000400761D5286CC0004FF000080CD4CDF869
:101AC00000804FF00108286C40F080502864286C9A
:101AD00000F0805000900098DFF83C91D9F80000A9
:101AE000C00512D4D9F8000040F48070C9F8000095
:101AF000FEF790FF0746D9F80000C00505D4FEF7B1
:101B000089FFC01B0328F6D37AE0A068012805D01E
:101B10000528286F06D140F004002867286F40F0A0
:101B2000010005E0400840002867286F20F004000D
:101B3000286741F28939A06858B1FEF76BFF074664
:101B4000286F800711D4FEF765FFC01B4845F7D307
:101B500056E0FEF75FFF0746286F800705D5FEF7C2
:101B600059FFC01B4845F7D34AE0B8F1000F03D036
:101B7000286C20F080502864A069002842D0A96811
:101B800001F00C0108293FF405AF02282BD10020F9
:101B90003066FEF73FFF07462868800105D5FEF74F
:101BA00039FFC01B0328F7D32AE0E069216A084304
:101BB000616A40EA8110A16A891EC903090C40EAE2
:101BC0000140E16A40EA0160686001203066FEF78A
:101BD00021FF07462868800114D4FEF71BFFC01BB5
:101BE0000328F7D30CE000203066FEF713FF07460A
:101BF0002868800106D5FEF70DFFC01B0328F7D328
:101C0000032000E00020BDE8F28300BF003802405E
:101C100000004742800E47420070004038B50D4D2D
:101C2000297804464FF47A70B0FBF1F00A4909684C
:101C3000B1FBF0F0FFF75DFB50B9102C08D2002289
:101C400021464FF0FF30FFF72DFBAC60002032BD86
:101C5000012032BDA8050020B40500201B4213D18D
:101C6000094236D12AB18446B0FBF2F002FB10C221
:101C7000704700F0EBB9FCD30022002370470B0043
:101C80000200002100207047904271EB030CF6D354
:101C900070B5B1FA81F4B3FA83F52C1BA340C4F1FB
:101CA000200532FA05F63343A2405FF00046E640D5
:101CB00002E05B085FEA3202841A71EB030524BF7D
:101CC000204629467641F4D302000B003000002163
:101CD00070BD012ACFD970B5140C20D0B1FA81F4AF
:101CE000B2FA82F5C4F120046419B4F12006D6D307
:101CF000B2405FF00044F440002502E052085FEA81
:101D00003303C61A71EB020E24BF3046714664419C
:101D10006D41F3D302000B002000290070BD0C467A
:101D2000B1FBF2F102FB11452D0445EA1045B5FB6C
:101D3000F2F402FB145580B240EA0545B5FBF2F01F
:101D400002FB105240EA044070BD000000B500BF25
:101D5000130096469446103928BFA0E80C50FAD8D4
:101D60005FEA417C28BF0CC048BF40F8042BC9077C
:101D700028BF20F8022B48BF00F8012B00BD00004F
:101D80000EB418B504460898012817D1A06BDFF8E7
:101D9000341220F48030A063E0680840E060E0681E
:101DA00020F44010E0600F98012803D1E06840F46F
:101DB0008010E060204600F0E9F809E0E06840F0BB
:101DC0004000E060204600F0E1F84FF48030A0636E
:101DD0000698012807D1A06840F00600A060A0681E
:101DE00040F02000A060002012BC5DF810FB81686C
:101DF0004908490081600020704780B5C26822F020
:101E0000C0420129C26003D1C16841F0005103E022
:101E100019B9C16841F08041C160322000F0B2B808
:101E20000EB4FCB50446119DA06B0026002D0CBF1E
:101E300040F4001040F4002004F56061A06304F554
:101E400000670E60386838600C98012805D1099841
:101E5000002814BF0121002100E00321204600F0EA
:101E600081F81021204600F061F8204600F06DF85E
:101E70003E617E614FF0FF30B861FE61FF204FF0A0
:101E8000904103E0002313619060761C079A96420C
:101E90000AD204EB461202F510621368002B4EBF03
:101EA000116000231360EDE7002203E000261E61AD
:101EB0009860521C079B9A420AD204EB421303F526
:101EC00030631E68002E4EBF196000261E60EDE7CD
:101ED000386920F4807038610A98012809D1DFF848
:101EE000E8103963396B41F4803141F00301396303
:101EF000396B0021A1616FF08041616100F05BF8F6
:101F0000DFF8C8100843A0610D9818B1A06940F02F
:101F10000800A061012D05D1A06940F0804040F08B
:101F20000400A0610020F6BC5DF810FB890141F0BF
:101F300020010161DFF89810491E01D1032070478C
:101F400002699206F8D40020704710210161DFF881
:101F50008010491E01D1032070470269D206F8D4CF
:101F60000020704700F50060FFE702681143016040
:101F70000020704780B500F50060416841F0020123
:101F800041600320FFF72EFC002002BDDFF8401067
:101F90000A46521E08D00369002BFAD5026942F0A6
:101FA00001020261491E01D1032070470269D20774
:101FB000F8D40020704718B9A06940F01000A06163
:101FC000A0697047BFFFBDFF0001800000383C8062
:101FD000410D030062B38B0708D0521E11F8013B7C
:101FE00000F8013B00F024808B07F6D1830740F016
:101FF000208000BF103A07D330B4B1E83810103A4F
:10200000A0E83810F9D230BC530724BFB1E808105B
:10201000A0E8081044BF51F8043B40F8043BD20745
:1020200024BF31F8022B20F8022B44BF0B78037039
:102030007047083A07D3B1E80810083A40F8043B63
:1020400040F804CBF7D25307E4E7000070470000E4
:102050000E480F4A016841F4700101600D480168A3
:1020600041F00101016000218160016811400160BF
:1020700009494160016821F4802101600021C160AB
:102080004FF00060054908607047000088ED00E0EF
:10209000FFFFF6FE003802401030002408ED00E09B
:1020A0000000000000000000010203040607080908
:1020B00019E050F8041BCB0744BFA9F101035918DC
:1020C000121F0023042A41F8043BF9D25FEA827C04
:1020D0000B4604D54FF0000CA1F800C09B1CD107A3
:1020E00044BF0021197050F8042B002AE1D1704739
:1020F00030B5016842688468014401EB5203D2079D
:1021000048BF4C44994201D10C3030BD11F9012B2C
:1021100011F8015B002A04F8015B02D5521CF9D1C9
:10212000F0E7521EF4D5EDE77047FEE7FEE7FEE765
:10213000FEE770477047704700F010B80448FEF79C
:10214000FCB80448FEF7F9B80348FEF7F6B80000FB
:10215000BC090020000A0020400A00200248416813
:102160000278891841607047A805002010B507491A
:1021700079441831064C7C44163404E00A68081D82
:10218000114488470146A142F8D110BD2C0000003F
:10219000480000004EF68851CEF20001086840F475
:1021A00070000860BFF34F8FBFF36F8F4FF0007068
:1021B000E1EE100A70470000F9FEFFFF0001000089
:1021C000B80900200000000029FFFFFFD001000037
:1021D000BC0000000000002000F00BF8002801D037
:1021E000FFF7C4FF0020AFF30080FEF72DFC00F0E6
:1021F00002F80120704700F001B800000746384699
:1022000000F002F8FBE7000080B5AFF30080024A5F
:1022100011001820ABBEFBE72600020001488047F2
:1022200001480047512000082D220008AFF300802C
:10223000FFF7B0FFFFF7D0FF00000000010203042A
:10224000FFF7FEBFFFF7FEBFFFF7FEBFFFF7FEBFC2
:10225000FFF7FEBFFFF7FEBFFFF7FEBFFFF7FEBFB2
:10226000FFF7FEBFFFF7FEBFFFF7FEBFFFF7FEBFA2
:10227000FFF7FEBFFFF7FEBFFFF7FEBFFFF7FEBF92
:10228000FFF7FEBFFFF7FEBFFFF7FEBFFFF7FEBF82
:10229000FFF7FEBFFFF7FEBFFFF7FEBFFFF7FEBF72
:1022A000FFF7FEBFFFF7FEBFFFF7FEBFFFF7FEBF62
:1022B000FFF7FEBFFFF7FEBFFFF7FEBFFFF7FEBF52
:1022C000FFF7FEBFFFF7FEBFFFF7FEBFFFF7FEBF42
:1022D000FFF7FEBFFFF7FEBFFFF7FEBFFFF7FEBF32
:1022E000FFF7FEBFFFF7FEBFFFF7FEBFFFF7FEBF22
:1022F000FFF7FEBFFFF7FEBFFFF7FEBFFFF7FEBF12
:10230000FFF7FEBFFFF7FEBFFFF7FEBFFFF7FEBF01
:10231000FFF7FEBFFFF7FEBFFFF7FEBFFFF7FEBFF1
:10232000FFF7FEBFFFF7FEBFFFF7FEBFFFF7FEBFE1
:10233000FFF7FEBFFFF7FEBFFFF7FEBFFFF7FEBFD1
:10234000FFF7FEBFFFF7FEBFFFF7FEBFFFF7FEBFC1
:10235000FFF7FEBFFFF7FEBFFFF7FEBFFFF7FEBFB1
:10236000FFF7FEBFFFF7FEBFFFF7FEBFFFF7FEBFA1
:10237000FFF7FEBFFFF7FEBFFFF7FEBFFFF7FEBF91
:10238000FFF7FEBFFFF7FEBFFFF7FEBFFFF7FEBF81
:10239000FFF7FEBFFFF7FEBFFFF7FEBF0741542B5D
:1023A000444953433FFC002541542B434F4E413891
:1023B00031303837314431303341000041542B4300
:1023C0004F4E413831303837314234384635960037
:1023D00002610D0A8100810081008100810081007D
:1023E000810081008100D60002620D0A9B0000017D
:0A23F000F9000010FC000224F400C4
:040000050800222DA0
:00000001FF
